{
  "address": "0x18d828e16b6705c597ADC8d1e8d964D3A03021AF",
  "abi": [
    {
      "anonymous": false,
      "inputs": [
        {
          "indexed": false,
          "internalType": "address",
          "name": "gameAddress",
          "type": "address"
        },
        {
          "indexed": false,
          "internalType": "address",
          "name": "admin",
          "type": "address"
        },
        {
          "indexed": false,
          "internalType": "uint256",
          "name": "timeLimit",
          "type": "uint256"
        },
        {
          "indexed": false,
          "internalType": "uint256",
          "name": "scorePoint",
          "type": "uint256"
        }
      ],
      "name": "GameDeployed",
      "type": "event"
    },
    {
      "inputs": [
        {
          "internalType": "address",
          "name": "_admin",
          "type": "address"
        },
        {
          "internalType": "uint256",
          "name": "_timeLimit",
          "type": "uint256"
        },
        {
          "internalType": "uint256",
          "name": "_scorePoint",
          "type": "uint256"
        }
      ],
      "name": "createGame",
      "outputs": [],
      "stateMutability": "nonpayable",
      "type": "function"
    },
    {
      "inputs": [
        {
          "internalType": "uint256",
          "name": "",
          "type": "uint256"
        }
      ],
      "name": "deployedGames",
      "outputs": [
        {
          "internalType": "address",
          "name": "",
          "type": "address"
        }
      ],
      "stateMutability": "view",
      "type": "function"
    },
    {
      "inputs": [],
      "name": "getDeployedGames",
      "outputs": [
        {
          "internalType": "address[]",
          "name": "",
          "type": "address[]"
        }
      ],
      "stateMutability": "view",
      "type": "function"
    }
  ],
  "transactionHash": "0xf97085a991cf72722949240981a219067e3f3130b2c45a88aaa2ce8ec9fef98b",
  "args": [],
  "numDeployments": 1,
  "solcInputHash": "08902476779fc2a7eeb27da6832da3ee",
  "bytecode": "0x608060405234801561001057600080fd5b50611e3b806100206000396000f3fe608060405234801561001057600080fd5b50600436106100415760003560e01c80633b17469e14610046578063657908d11461005b578063eae81c371461008b575b600080fd5b610059610054366004610222565b6100a0565b005b61006e610069366004610263565b610189565b6040516001600160a01b0390911681526020015b60405180910390f35b6100936101b3565b604051610082919061027c565b60008383836040516100b190610215565b6001600160a01b03909316835260208301919091526040820152606001604051809103906000f0801580156100ea573d6000803e3d6000fd5b50600080546001810182559080527f290decd9548b62a8d60345a988386fc84ba6bc95484008f6362f93160ef3e5630180546001600160a01b0319166001600160a01b03838116918217909255604080519182529187166020820152908101859052606081018490529091507febf3b51c57d35f8cc61238336978b143133c077727093f8c422051710fb3d3519060800160405180910390a150505050565b6000818154811061019957600080fd5b6000918252602090912001546001600160a01b0316905081565b6060600080548060200260200160405190810160405280929190818152602001828054801561020b57602002820191906000526020600020905b81546001600160a01b031681526001909101906020018083116101ed575b5050505050905090565b611b3c806102ca83390190565b60008060006060848603121561023757600080fd5b83356001600160a01b038116811461024e57600080fd5b95602085013595506040909401359392505050565b60006020828403121561027557600080fd5b5035919050565b6020808252825182820181905260009190848201906040850190845b818110156102bd5783516001600160a01b031683529284019291840191600101610298565b5090969550505050505056fe60c060405234801561001057600080fd5b50604051611b3c380380611b3c83398101604081905261002f9161005b565b600480546001600160a01b0319166001600160a01b03949094169390931790925560805260a05261009e565b60008060006060848603121561007057600080fd5b83516001600160a01b038116811461008757600080fd5b602085015160409095015190969495509392505050565b60805160a051611a6b6100d16000396000818161019a01526107c501526000818161022c015261079e0152611a6b6000f3fe608060405234801561001057600080fd5b50600436106101375760003560e01c80638a19c8bc116100b8578063c1ecf1751161007c578063c1ecf175146102ca578063c315432a146102dd578063c821125a146102ea578063cea135161461030a578063e31b1d3e1461031f578063f851a4401461034257600080fd5b80638a19c8bc1461024e5780638cb147c5146102575780638dc107681461025f57806396c3683c14610283578063ba1652db146102c157600080fd5b80633e050efb116100ff5780633e050efb146101ca5780633ed2b77a146101ea5780635fae60a11461020b578063654c6daf1461021e578063698224ae1461022757600080fd5b80630926e6a21461013c5780631ceac7a31461015157806322ac35bc146101645780633a08a4e3146101825780633ccc5e9114610195575b600080fd5b61014f61014a36600461125c565b61036d565b005b61014f61015f366004611350565b610465565b61016c6105aa565b604051610179919061144c565b60405180910390f35b61014f610190366004611510565b610707565b6101bc7f000000000000000000000000000000000000000000000000000000000000000081565b604051908152602001610179565b6101bc6101d836600461125c565b60096020526000908152604090205481565b6101fd6101f836600461125c565b610895565b604051610179929190611560565b61014f610219366004611599565b610951565b6101bc60035481565b6101bc7f000000000000000000000000000000000000000000000000000000000000000081565b6101bc60065481565b61014f610a8a565b61027261026d36600461125c565b610af9565b60405161017995949392919061165b565b6102b16102913660046116a7565b600260209081526000928352604080842090915290825290205460ff1681565b6040519015158152602001610179565b6101bc60055481565b61014f6102d836600461125c565b610c5e565b6007546102b19060ff1681565b6102fd6102f836600461125c565b610d08565b60405161017991906116d3565b610312610f40565b60405161017991906116ed565b6102b161032d36600461179f565b60086020526000908152604090205460ff1681565b600454610355906001600160a01b031681565b6040516001600160a01b039091168152602001610179565b60005b6003548110156103bd57600081815260026020908152604080832033845290915290205460ff16156103b55760405163602e698d60e01b815260040160405180910390fd5b600101610370565b5060008181526002602090815260408083203384529091528120805460ff191660011790558054829081106103f4576103f46117ba565b60009182526020808320600160039093020182018054928301815583529091200180546001600160a01b031916339081179091556040517fb29b57413160b0083e91ebf1cd4f03c7e5656ed87a7162fc39e67b0c4dbeee2e9061045a9084815260200190565b60405180910390a250565b6004546001600160a01b03163314610490576040516317bf519960e11b815260040160405180910390fd5b60005b815181101561057d5760016040518060a001604052808484815181106104bb576104bb6117ba565b6020908102919091018101518252604080518083018252600080825284840191909152908301819052606083018190526080909201829052835460018101855593825290208151919260050201908190610515908261185a565b506020820151600182019061052a908261185a565b50604082015160028201805460ff191691151591909117905560608201516003820155608090910151600490910180546001600160a01b0319166001600160a01b03909216919091179055600101610493565b506040517f7e568be392f71b12c576e544dab9be1c057f35722b2ba7a586dcfba76159765190600090a150565b60606000805480602002602001604051908101604052809291908181526020016000905b828210156106fe5783829060005260206000209060030201604051806060016040529081600082018054610601906117d0565b80601f016020809104026020016040519081016040528092919081815260200182805461062d906117d0565b801561067a5780601f1061064f5761010080835404028352916020019161067a565b820191906000526020600020905b81548152906001019060200180831161065d57829003601f168201915b50505050508152602001600182018054806020026020016040519081016040528092919081815260200182805480156106dc57602002820191906000526020600020905b81546001600160a01b031681526001909101906020018083116106be575b50505050508152602001600282015481525050815260200190600101906105ce565b50505050905090565b6004546001600160a01b03163314610732576040516317bf519960e11b815260040160405180910390fd5b8260035481106107555760405163dc627d7960e01b815260040160405180910390fd5b600554841461077757604051630386e94160e61b815260040160405180910390fd5b6000848152600960205260408120546107909042611930565b905061079c84846110ec565b7f0000000000000000000000000000000000000000000000000000000000000000811161081d577f0000000000000000000000000000000000000000000000000000000000000000600086815481106107f7576107f76117ba565b906000526020600020906003020160020160008282546108179190611949565b90915550505b600085815260096020526040812081905580547fd3e8dbbe8ff60a1fae1e5f88e71f27270ed38badc7b26e19922ed94fd12f5fe991879182908110610864576108646117ba565b906000526020600020906003020160020154856040516108869392919061195c565b60405180910390a15050505050565b600081815481106108a557600080fd5b90600052602060002090600302016000915090508060000180546108c8906117d0565b80601f01602080910402602001604051908101604052809291908181526020018280546108f4906117d0565b80156109415780601f1061091657610100808354040283529160200191610941565b820191906000526020600020905b81548152906001019060200180831161092457829003601f168201915b5050505050908060020154905082565b6004546001600160a01b0316331461097c576040516317bf519960e11b815260040160405180910390fd5b604080516060810182528381526020810183905260009181018290528154600181018355918052805190916003027f290decd9548b62a8d60345a988386fc84ba6bc95484008f6362f93160ef3e563019081906109d9908261185a565b5060208281015180516109f292600185019201906111e2565b5060408201518160020155505060005b8151811015610a705760016002600060035481526020019081526020016000206000848481518110610a3657610a366117ba565b6020908102919091018101516001600160a01b03168252810191909152604001600020805460ff1916911515919091179055600101610a02565b5060038054906000610a8183611984565b91905055505050565b6004546001600160a01b03163314610ab5576040516317bf519960e11b815260040160405180910390fd5b6007805460ff19166001179055600554610ace90610c5e565b6040517f762f260439bb4be3ef6e4dc2786e2e7bd187d3d80b79057d7a424fe98563e33590600090a1565b60018181548110610b0957600080fd5b9060005260206000209060050201600091509050806000018054610b2c906117d0565b80601f0160208091040260200160405190810160405280929190818152602001828054610b58906117d0565b8015610ba55780601f10610b7a57610100808354040283529160200191610ba5565b820191906000526020600020905b815481529060010190602001808311610b8857829003601f168201915b505050505090806001018054610bba906117d0565b80601f0160208091040260200160405190810160405280929190818152602001828054610be6906117d0565b8015610c335780601f10610c0857610100808354040283529160200191610c33565b820191906000526020600020905b815481529060010190602001808311610c1657829003601f168201915b5050505060028301546003840154600490940154929360ff909116929091506001600160a01b031685565b6004546001600160a01b03163314610c89576040516317bf519960e11b815260040160405180910390fd5b806003548110610cac5760405163dc627d7960e01b815260040160405180910390fd5b600582905560068054906000610cc183611984565b91905055506006547f278844837bcf8364a705384bf3a2812901f54155bae86dea81dd52aa5b9ec0e3600554604051610cfc91815260200190565b60405180910390a25050565b60075460609060ff16610d2e5760405163014646cd60e71b815260040160405180910390fd5b600554600090815260026020908152604080832033845290915281205460ff1615159003610d6f5760405163602e698d60e01b815260040160405180910390fd5b3360009081526008602052604090205460ff1615610da0576040516365cf0fdd60e11b815260040160405180910390fd5b600060018381548110610db557610db56117ba565b60009182526020909120600590910201600281015490915060ff1615610dee576040516315bbe07d60e21b815260040160405180910390fd5b60028101805460ff1990811660019081179092556004830180546001600160a01b0319163390811790915560058054600386015560008281526008602090815260408083208054909616909617909455815481526009909352918390204290559054915190917fb8ae1a131e0728178e2a29bbc9b290fce41e280d3e85be8900b04082ac3f46d291610e829190859061199d565b60405180910390a260018381548110610e9d57610e9d6117ba565b90600052602060002090600502016000018054610eb9906117d0565b80601f0160208091040260200160405190810160405280929190818152602001828054610ee5906117d0565b8015610f325780601f10610f0757610100808354040283529160200191610f32565b820191906000526020600020905b815481529060010190602001808311610f1557829003601f168201915b50505050509150505b919050565b60606001805480602002602001604051908101604052809291908181526020016000905b828210156106fe57838290600052602060002090600502016040518060a0016040529081600082018054610f97906117d0565b80601f0160208091040260200160405190810160405280929190818152602001828054610fc3906117d0565b80156110105780601f10610fe557610100808354040283529160200191611010565b820191906000526020600020905b815481529060010190602001808311610ff357829003601f168201915b50505050508152602001600182018054611029906117d0565b80601f0160208091040260200160405190810160405280929190818152602001828054611055906117d0565b80156110a25780601f10611077576101008083540402835291602001916110a2565b820191906000526020600020905b81548152906001019060200180831161108557829003601f168201915b5050509183525050600282015460ff161515602080830191909152600383015460408301526004909201546001600160a01b03166060909101529082526001929092019101610f64565b6004546001600160a01b03163314611117576040516317bf519960e11b815260040160405180910390fd5b6001828154811061112a5761112a6117ba565b600091825260209091206002600590920201015460ff1661115e5760405163c9991f6560e01b815260040160405180910390fd5b60018281548110611171576111716117ba565b9060005260206000209060050201600101805461118d906117d0565b1590506111ac576040516239aa4960ea1b815260040160405180910390fd5b80600183815481106111c0576111c06117ba565b906000526020600020906005020160010190816111dd919061185a565b505050565b828054828255906000526020600020908101928215611237579160200282015b8281111561123757825182546001600160a01b0319166001600160a01b03909116178255602090920191600190910190611202565b50611243929150611247565b5090565b5b808211156112435760008155600101611248565b60006020828403121561126e57600080fd5b5035919050565b634e487b7160e01b600052604160045260246000fd5b604051601f8201601f1916810167ffffffffffffffff811182821017156112b4576112b4611275565b604052919050565b600067ffffffffffffffff8211156112d6576112d6611275565b5060051b60200190565b600082601f8301126112f157600080fd5b813567ffffffffffffffff81111561130b5761130b611275565b61131e601f8201601f191660200161128b565b81815284602083860101111561133357600080fd5b816020850160208301376000918101602001919091529392505050565b6000602080838503121561136357600080fd5b823567ffffffffffffffff8082111561137b57600080fd5b818501915085601f83011261138f57600080fd5b81356113a261139d826112bc565b61128b565b81815260059190911b830184019084810190888311156113c157600080fd5b8585015b838110156113f9578035858111156113dd5760008081fd5b6113eb8b89838a01016112e0565b8452509186019186016113c5565b5098975050505050505050565b6000815180845260005b8181101561142c57602081850181015186830182015201611410565b506000602082860101526020601f19601f83011685010191505092915050565b600060208083018184528085518083526040925060408601915060408160051b8701018488016000805b8481101561150157603f198a850301865282516060815181875261149c82880182611406565b838c0151888203898e01528051808352908d019350869250908c01905b808310156114e25783516001600160a01b03168252928c019260019290920191908c01906114b9565b50928a0151968a01969096525095880195935091870191600101611476565b50919998505050505050505050565b60008060006060848603121561152557600080fd5b8335925060208401359150604084013567ffffffffffffffff81111561154a57600080fd5b611556868287016112e0565b9150509250925092565b6040815260006115736040830185611406565b90508260208301529392505050565b80356001600160a01b0381168114610f3b57600080fd5b600080604083850312156115ac57600080fd5b823567ffffffffffffffff808211156115c457600080fd5b6115d0868387016112e0565b93506020915081850135818111156115e757600080fd5b85019050601f810186136115fa57600080fd5b803561160861139d826112bc565b81815260059190911b8201830190838101908883111561162757600080fd5b928401925b8284101561164c5761163d84611582565b8252928401929084019061162c565b80955050505050509250929050565b60a08152600061166e60a0830188611406565b82810360208401526116808188611406565b9515156040840152505060608101929092526001600160a01b031660809091015292915050565b600080604083850312156116ba57600080fd5b823591506116ca60208401611582565b90509250929050565b6020815260006116e66020830184611406565b9392505050565b600060208083018184528085518083526040925060408601915060408160051b87010184880160005b8381101561179157603f19898403018552815160a0815181865261173c82870182611406565b915050888201518582038a8701526117548282611406565b838a01511515878b0152606080850151908801526080938401516001600160a01b0316939096019290925250509386019390860190600101611716565b509098975050505050505050565b6000602082840312156117b157600080fd5b6116e682611582565b634e487b7160e01b600052603260045260246000fd5b600181811c908216806117e457607f821691505b60208210810361180457634e487b7160e01b600052602260045260246000fd5b50919050565b601f8211156111dd576000816000526020600020601f850160051c810160208610156118335750805b601f850160051c820191505b818110156118525782815560010161183f565b505050505050565b815167ffffffffffffffff81111561187457611874611275565b6118888161188284546117d0565b8461180a565b602080601f8311600181146118bd57600084156118a55750858301515b600019600386901b1c1916600185901b178555611852565b600085815260208120601f198616915b828110156118ec578886015182559484019460019091019084016118cd565b508582101561190a5787850151600019600388901b60f8161c191681555b5050505050600190811b01905550565b634e487b7160e01b600052601160045260246000fd5b818103818111156119435761194361191a565b92915050565b808201808211156119435761194361191a565b83815282602082015260606040820152600061197b6060830184611406565b95945050505050565b6000600182016119965761199661191a565b5060010190565b8281526000602060406020840152600084546119b8816117d0565b80604087015260606001808416600081146119da57600181146119f657611a26565b60ff19851660608a0152606084151560051b8a01019550611a26565b89600052602060002060005b85811015611a1d5781548b8201860152908301908801611a02565b8a016060019650505b5093999850505050505050505056fea2646970667358221220f52a271e958c87f1906191b7c2e34e6244df2b34a3be62a7c1b22c29b320b1a164736f6c63430008180033a2646970667358221220f3e6eaa081cbbd57141d641000471433f445a6c438dc185ba3cdb6fafd7f67d964736f6c63430008180033",
  "devdoc": {
    "kind": "dev",
    "methods": {},
    "version": 1
  },
  "userdoc": {
    "kind": "user",
    "methods": {},
    "version": 1
  },
  "storageLayout": {
    "storage": [
      {
        "astId": 581,
        "contract": "contracts/game/CharadeGameFactory.sol:CharadeGameFactory",
        "label": "deployedGames",
        "offset": 0,
        "slot": "0",
        "type": "t_array(t_address)dyn_storage"
      }
    ],
    "types": {
      "t_address": {
        "encoding": "inplace",
        "label": "address",
        "numberOfBytes": "20"
      },
      "t_array(t_address)dyn_storage": {
        "base": "t_address",
        "encoding": "dynamic_array",
        "label": "address[]",
        "numberOfBytes": "32"
      }
    }
  }
}